{
  "contractName": "Wallet",
  "abi": [
    {
      "inputs": [
        {
          "internalType": "address[]",
          "name": "_approvers",
          "type": "address[]"
        },
        {
          "internalType": "uint256",
          "name": "_limit",
          "type": "uint256"
        }
      ],
      "stateMutability": "nonpayable",
      "type": "constructor"
    },
    {
      "inputs": [
        {
          "internalType": "uint256",
          "name": "",
          "type": "uint256"
        }
      ],
      "name": "approvers",
      "outputs": [
        {
          "internalType": "address",
          "name": "",
          "type": "address"
        }
      ],
      "stateMutability": "view",
      "type": "function"
    },
    {
      "inputs": [],
      "name": "limit",
      "outputs": [
        {
          "internalType": "uint256",
          "name": "",
          "type": "uint256"
        }
      ],
      "stateMutability": "view",
      "type": "function"
    },
    {
      "stateMutability": "payable",
      "type": "receive"
    },
    {
      "inputs": [],
      "name": "getApprovers",
      "outputs": [
        {
          "internalType": "address[]",
          "name": "",
          "type": "address[]"
        }
      ],
      "stateMutability": "view",
      "type": "function"
    },
    {
      "inputs": [
        {
          "internalType": "address payable",
          "name": "to",
          "type": "address"
        }
      ],
      "name": "createTransfer",
      "outputs": [],
      "stateMutability": "payable",
      "type": "function"
    },
    {
      "inputs": [
        {
          "internalType": "uint256",
          "name": "id",
          "type": "uint256"
        }
      ],
      "name": "approveTransfer",
      "outputs": [],
      "stateMutability": "nonpayable",
      "type": "function"
    },
    {
      "inputs": [],
      "name": "getTransfers",
      "outputs": [
        {
          "components": [
            {
              "internalType": "uint256",
              "name": "id",
              "type": "uint256"
            },
            {
              "internalType": "address payable",
              "name": "to",
              "type": "address"
            },
            {
              "internalType": "uint256",
              "name": "amount",
              "type": "uint256"
            },
            {
              "internalType": "uint256",
              "name": "approvals",
              "type": "uint256"
            },
            {
              "internalType": "bool",
              "name": "sent",
              "type": "bool"
            }
          ],
          "internalType": "struct Wallet.Transfer[]",
          "name": "",
          "type": "tuple[]"
        }
      ],
      "stateMutability": "view",
      "type": "function"
    },
    {
      "inputs": [
        {
          "internalType": "uint256",
          "name": "id",
          "type": "uint256"
        }
      ],
      "name": "withdraw",
      "outputs": [],
      "stateMutability": "nonpayable",
      "type": "function"
    }
  ],
  "bytecode": "0x60806040523480156200001157600080fd5b50604051620015be380380620015be833981810160405281019062000037919062000336565b81600090805190602001906200004f9291906200005f565b508060018190555050506200039c565b828054828255906000526020600020908101928215620000db579160200282015b82811115620000da5782518260006101000a81548173ffffffffffffffffffffffffffffffffffffffff021916908373ffffffffffffffffffffffffffffffffffffffff1602179055509160200191906001019062000080565b5b509050620000ea9190620000ee565b5090565b5b8082111562000109576000816000905550600101620000ef565b5090565b6000604051905090565b600080fd5b600080fd5b600080fd5b6000601f19601f8301169050919050565b7f4e487b7100000000000000000000000000000000000000000000000000000000600052604160045260246000fd5b620001718262000126565b810181811067ffffffffffffffff8211171562000193576200019262000137565b5b80604052505050565b6000620001a86200010d565b9050620001b6828262000166565b919050565b600067ffffffffffffffff821115620001d957620001d862000137565b5b602082029050602081019050919050565b600080fd5b600073ffffffffffffffffffffffffffffffffffffffff82169050919050565b60006200021c82620001ef565b9050919050565b6200022e816200020f565b81146200023a57600080fd5b50565b6000815190506200024e8162000223565b92915050565b60006200026b6200026584620001bb565b6200019c565b90508083825260208201905060208402830185811115620002915762000290620001ea565b5b835b81811015620002be5780620002a988826200023d565b84526020840193505060208101905062000293565b5050509392505050565b600082601f830112620002e057620002df62000121565b5b8151620002f284826020860162000254565b91505092915050565b6000819050919050565b6200031081620002fb565b81146200031c57600080fd5b50565b600081519050620003308162000305565b92915050565b6000806040838503121562000350576200034f62000117565b5b600083015167ffffffffffffffff8111156200037157620003706200011c565b5b6200037f85828601620002c8565b925050602062000392858286016200031f565b9150509250929050565b61121280620003ac6000396000f3fe6080604052600436106100745760003560e01c80636cb3e8ef1161004e5780636cb3e8ef146100f0578063a4d66daf1461011b578063cacca4a014610146578063d3650fb81461016f5761007b565b80632e1a7d4d146100805780632f65142c146100a9578063673a8e6a146100d45761007b565b3661007b57005b600080fd5b34801561008c57600080fd5b506100a760048036038101906100a29190610b2d565b6101ac565b005b3480156100b557600080fd5b506100be610463565b6040516100cb9190610cdc565b60405180910390f35b6100ee60048036038101906100e99190610d2a565b610551565b005b3480156100fc57600080fd5b50610105610778565b6040516101129190610e27565b60405180910390f35b34801561012757600080fd5b50610130610806565b60405161013d9190610e58565b60405180910390f35b34801561015257600080fd5b5061016d60048036038101906101689190610b2d565b61080c565b005b34801561017b57600080fd5b5061019660048036038101906101919190610b2d565b610ab3565b6040516101a39190610e82565b60405180910390f35b6000805b600080549050811015610246573373ffffffffffffffffffffffffffffffffffffffff16600082815481106101e8576101e7610e9d565b5b9060005260206000200160009054906101000a900473ffffffffffffffffffffffffffffffffffffffff1673ffffffffffffffffffffffffffffffffffffffff160361023357600191505b808061023e90610efb565b9150506101b0565b50600115158115151461028e576040517f08c379a000000000000000000000000000000000000000000000000000000000815260040161028590610fa0565b60405180910390fd5b600154600283815481106102a5576102a4610e9d565b5b906000526020600020906005020160030154116102f7576040517f08c379a00000000000000000000000000000000000000000000000000000000081526004016102ee9061100c565b60405180910390fd5b600015156002838154811061030f5761030e610e9d565b5b906000526020600020906005020160040160009054906101000a900460ff16151514610370576040517f08c379a000000000000000000000000000000000000000000000000000000000815260040161036790611078565b60405180910390fd5b60016002838154811061038657610385610e9d565b5b906000526020600020906005020160040160006101000a81548160ff021916908315150217905550600282815481106103c2576103c1610e9d565b5b906000526020600020906005020160010160009054906101000a900473ffffffffffffffffffffffffffffffffffffffff1673ffffffffffffffffffffffffffffffffffffffff166108fc6002848154811061042157610420610e9d565b5b9060005260206000209060050201600201549081150290604051600060405180830381858888f1935050505015801561045e573d6000803e3d6000fd5b505050565b60606002805480602002602001604051908101604052809291908181526020016000905b8282101561054857838290600052602060002090600502016040518060a0016040529081600082015481526020016001820160009054906101000a900473ffffffffffffffffffffffffffffffffffffffff1673ffffffffffffffffffffffffffffffffffffffff1673ffffffffffffffffffffffffffffffffffffffff16815260200160028201548152602001600382015481526020016004820160009054906101000a900460ff16151515158152505081526020019060010190610487565b50505050905090565b6000805b6000805490508110156105eb573373ffffffffffffffffffffffffffffffffffffffff166000828154811061058d5761058c610e9d565b5b9060005260206000200160009054906101000a900473ffffffffffffffffffffffffffffffffffffffff1673ffffffffffffffffffffffffffffffffffffffff16036105d857600191505b80806105e390610efb565b915050610555565b506001151581151514610633576040517f08c379a000000000000000000000000000000000000000000000000000000000815260040161062a90610fa0565b60405180910390fd5b60003411610676576040517f08c379a000000000000000000000000000000000000000000000000000000000815260040161066d906110e4565b60405180910390fd5b60006040518060a0016040528060028054905081526020018473ffffffffffffffffffffffffffffffffffffffff1681526020013481526020016000815260200160001515815250905060028190806001815401808255809150506001900390600052602060002090600502016000909190919091506000820151816000015560208201518160010160006101000a81548173ffffffffffffffffffffffffffffffffffffffff021916908373ffffffffffffffffffffffffffffffffffffffff160217905550604082015181600201556060820151816003015560808201518160040160006101000a81548160ff0219169083151502179055505050505050565b606060008054806020026020016040519081016040528092919081815260200182805480156107fc57602002820191906000526020600020905b8160009054906101000a900473ffffffffffffffffffffffffffffffffffffffff1673ffffffffffffffffffffffffffffffffffffffff16815260200190600101908083116107b2575b5050505050905090565b60015481565b6000805b6000805490508110156108a6573373ffffffffffffffffffffffffffffffffffffffff166000828154811061084857610847610e9d565b5b9060005260206000200160009054906101000a900473ffffffffffffffffffffffffffffffffffffffff1673ffffffffffffffffffffffffffffffffffffffff160361089357600191505b808061089e90610efb565b915050610810565b5060011515811515146108ee576040517f08c379a00000000000000000000000000000000000000000000000000000000081526004016108e590610fa0565b60405180910390fd5b60001515600360003373ffffffffffffffffffffffffffffffffffffffff1673ffffffffffffffffffffffffffffffffffffffff168152602001908152602001600020600084815260200190815260200160002060009054906101000a900460ff16151514610992576040517f08c379a000000000000000000000000000000000000000000000000000000000815260040161098990611150565b60405180910390fd5b60001515600283815481106109aa576109a9610e9d565b5b906000526020600020906005020160040160009054906101000a900460ff16151514610a0b576040517f08c379a0000000000000000000000000000000000000000000000000000000008152600401610a02906111bc565b60405180910390fd5b60028281548110610a1f57610a1e610e9d565b5b90600052602060002090600502016003016000815480929190610a4190610efb565b91905055506001600360003373ffffffffffffffffffffffffffffffffffffffff1673ffffffffffffffffffffffffffffffffffffffff168152602001908152602001600020600084815260200190815260200160002060006101000a81548160ff0219169083151502179055505050565b60008181548110610ac357600080fd5b906000526020600020016000915054906101000a900473ffffffffffffffffffffffffffffffffffffffff1681565b600080fd5b6000819050919050565b610b0a81610af7565b8114610b1557600080fd5b50565b600081359050610b2781610b01565b92915050565b600060208284031215610b4357610b42610af2565b5b6000610b5184828501610b18565b91505092915050565b600081519050919050565b600082825260208201905092915050565b6000819050602082019050919050565b610b8f81610af7565b82525050565b600073ffffffffffffffffffffffffffffffffffffffff82169050919050565b6000610bc082610b95565b9050919050565b610bd081610bb5565b82525050565b60008115159050919050565b610beb81610bd6565b82525050565b60a082016000820151610c076000850182610b86565b506020820151610c1a6020850182610bc7565b506040820151610c2d6040850182610b86565b506060820151610c406060850182610b86565b506080820151610c536080850182610be2565b50505050565b6000610c658383610bf1565b60a08301905092915050565b6000602082019050919050565b6000610c8982610b5a565b610c938185610b65565b9350610c9e83610b76565b8060005b83811015610ccf578151610cb68882610c59565b9750610cc183610c71565b925050600181019050610ca2565b5085935050505092915050565b60006020820190508181036000830152610cf68184610c7e565b905092915050565b610d0781610bb5565b8114610d1257600080fd5b50565b600081359050610d2481610cfe565b92915050565b600060208284031215610d4057610d3f610af2565b5b6000610d4e84828501610d15565b91505092915050565b600081519050919050565b600082825260208201905092915050565b6000819050602082019050919050565b6000610d8e82610b95565b9050919050565b610d9e81610d83565b82525050565b6000610db08383610d95565b60208301905092915050565b6000602082019050919050565b6000610dd482610d57565b610dde8185610d62565b9350610de983610d73565b8060005b83811015610e1a578151610e018882610da4565b9750610e0c83610dbc565b925050600181019050610ded565b5085935050505092915050565b60006020820190508181036000830152610e418184610dc9565b905092915050565b610e5281610af7565b82525050565b6000602082019050610e6d6000830184610e49565b92915050565b610e7c81610d83565b82525050565b6000602082019050610e976000830184610e73565b92915050565b7f4e487b7100000000000000000000000000000000000000000000000000000000600052603260045260246000fd5b7f4e487b7100000000000000000000000000000000000000000000000000000000600052601160045260246000fd5b6000610f0682610af7565b91507fffffffffffffffffffffffffffffffffffffffffffffffffffffffffffffffff8203610f3857610f37610ecc565b5b600182019050919050565b600082825260208201905092915050565b7f6f6e6c7920666f7220617070726f766572732100000000000000000000000000600082015250565b6000610f8a601383610f43565b9150610f9582610f54565b602082019050919050565b60006020820190508181036000830152610fb981610f7d565b9050919050565b7f7265717569726520617070726f76616c73212121000000000000000000000000600082015250565b6000610ff6601483610f43565b915061100182610fc0565b602082019050919050565b6000602082019050818103600083015261102581610fe9565b9050919050565b7f616c726561647920646f6e652121210000000000000000000000000000000000600082015250565b6000611062600f83610f43565b915061106d8261102c565b602082019050919050565b6000602082019050818103600083015261109181611055565b9050919050565b7f4d7573742070726f766964652076616c75650000000000000000000000000000600082015250565b60006110ce601283610f43565b91506110d982611098565b602082019050919050565b600060208201905081810360008301526110fd816110c1565b9050919050565b7f43616e6e6f7420617070726f7665207477696365212121000000000000000000600082015250565b600061113a601783610f43565b915061114582611104565b602082019050919050565b600060208201905081810360008301526111698161112d565b9050919050565b7f7472616e7366657220616c72656164792073656e742121210000000000000000600082015250565b60006111a6601883610f43565b91506111b182611170565b602082019050919050565b600060208201905081810360008301526111d581611199565b905091905056fea2646970667358221220744140925ce2c323da55bedb3432029bb18b6d338ced8761ca92a60c1c8ceca264736f6c634300080f0033",
  "immutableReferences": {},
  "source": "// SPDX-License-Identifier: GPL-3.0\r\npragma solidity 0.8.15;\r\npragma experimental ABIEncoderV2;\r\n\r\ncontract Wallet {\r\n    address[] public approvers;\r\n    uint public limit;\r\n    struct Transfer{\r\n        uint id;\r\n        address payable to;\r\n        uint amount;\r\n        uint approvals;\r\n        bool sent;\r\n    }\r\n    Transfer[] transfers;\r\n    mapping(address => mapping(uint => bool)) approvals;\r\n\r\n    constructor(address[] memory _approvers, uint _limit){\r\n        approvers = _approvers;\r\n        limit = _limit;\r\n    }\r\n\r\n    modifier onlyApprovers(){\r\n        bool allowed = false;\r\n        for(uint i = 0; i < approvers.length; i++){\r\n            if(approvers[i] == msg.sender){\r\n                allowed = true;\r\n            }\r\n        }\r\n        require(allowed == true, \"only for approvers!\");\r\n        _;\r\n    }\r\n\r\n    function getApprovers() external view returns(address[] memory){\r\n        return approvers;\r\n    }\r\n\r\n    function createTransfer(address payable to) external payable onlyApprovers {\r\n        require(msg.value > 0, \"Must provide value\");\r\n        Transfer memory transfer = Transfer(\r\n            transfers.length,\r\n            to,\r\n            msg.value,\r\n            0,\r\n            false\r\n        );\r\n        transfers.push(transfer);\r\n    }\r\n\r\n    function approveTransfer(uint id) external onlyApprovers {\r\n        require(approvals[msg.sender][id] == false, \"Cannot approve twice!!!\");\r\n        require(transfers[id].sent == false, \"transfer already sent!!!\");\r\n        transfers[id].approvals++;\r\n        approvals[msg.sender][id] = true;\r\n    }\r\n\r\n    function getTransfers() external view returns(Transfer[] memory){\r\n        return transfers;\r\n    }\r\n\r\n    function withdraw(uint id) external onlyApprovers{\r\n        require(transfers[id].approvals > limit, \"require approvals!!!\");\r\n        require(transfers[id].sent == false, \"already done!!!\");\r\n        transfers[id].sent = true;\r\n        transfers[id].to.transfer(transfers[id].amount);\r\n    }\r\n\r\n    receive() external payable {}\r\n\r\n}",
  "sourcePath": "C:\\Users\\Zayna\\Desktop\\wallet\\web3\\contracts\\Wallet.sol",
  "compiler": {
    "name": "solc",
    "version": "0.8.15+commit.e14f2714.Emscripten.clang"
  },
  "schemaVersion": "3.4.3",
  "updatedAt": "2022-07-04T20:12:32.266Z",
  "devdoc": {
    "kind": "dev",
    "methods": {},
    "version": 1
  },
  "userdoc": {
    "kind": "user",
    "methods": {},
    "version": 1
  }
}